:0E0000000C942F000C9491000C9499000C9419
:10000E0000000C9400000C9400000C9400000C9462
:10001E0000000C9400000C9400000C9400000C9452
:10002E0000000C9400000C9400000C9400000C9442
:10003E0000000C9400000C9400000C9400000C9432
:10004E0000000C94000000000200040054000000A8
:10005E00F894EE27ECBBF1E0FBBFEBBFE5BF8DE004
:10006E00A2E0BB27ED938A95E9F780E094E0A0E645
:10007E00ED930197E9F7E6E5F0E08591959100970C
:10008E0061F0A591B59105901590BF01F001059015
:10009E000D920197E1F7FB01F0CFEFE5EDBFE4E044
:1000AE00EEBFC0E6D1E00C949A00BA93AA931A93CD
:1000BE000A9300E010E000E010E0EA81FB810E17E9
:1000CE001F073CF4A1E0B0E00E9411010F5F1F4F2B
:1000DE00F4CF1981088124960895BA93AA93E3E088
:1000EE00EABBE881F981309751F4A0E0D899A1E0FC
:1000FE00E1E0EA2711F4D89801C0D89A09C0A0E02F
:10010E00D999A1E0E1E0EA2711F4D99801C0D99A72
:10011E0022960895EA93FA93E1E0F0E02F01F99127
:10012E00E99118951895E0E0EABBEBBBE7BBE8BB9D
:10013E00E4BBE5BBE0E8E1BBE0E0E2BBE3BFE2BF6E
:10014E00ECBFEFBDEEBDEDBDECBDE7BDE6BDEBBD5D
:10015E00EABDE9BDE8BDE2BDE5BDE4BDE3BDE9BF75
:10016E00EFE0E5BFE0E0E4BFE0ECEBBF7894E0E069
:10017E00EAB9E0E8E8B9E0E0E0BFE6B9EDB9E6BF1C
:10018E00E1E0EABB2297E0E0E883E983042C05284E
:10019E00E9F3A6E9B0E089DF829903C0442455242F
:1001AE00F5CFA4EFB1E081DF829B0BC0E881F9812E
:1001BE000E941F013396E883F983A1E0B0E08DDF42
:1001CE000AC0A0E0B0E089DFE881F9810E941F013A
:1001DE003296E883F983E881F981AFEFB7E00E94A8
:1001EE004501E883F983A881B981E0E4F0E00E943B
:1001FE003701EB32A0E0FA0749F4A0E09799A1E0AD
:10020E00E1E0EA2711F4979801C0979A4424552407
:10021E00BDCFFFCF109639F08AEF90E00197F1F73E
:10022E00A8951197C9F70895F195E195F0400895B5
:10023E00EE0FFF1FEE0FFF1F08950024112490E113
:10024E00AA0FBB1F001C111C0E1A1F0A18F40E0E4B
:10025E001F1E01C0A1609A9599F7FD01D001089566
:10026E00E894B7FF04C0A095B09511966894F7FD79
:10027E00DBDFE3DFFD010EF4D7DF0895E894F7FF2F
:10028E0002C0D2DF6894EA23FB230EF4CDDF08957B
:00000001FF
