:100000000C9439000C9400000C9400000C94000037
:100010000C9400000C9400000C9400000C94000060
:100020000C9400000C9400000C9400000C94000050
:100030000C9400000C9400000C9400000C94000040
:100040000C9400000C9400000C9400000C94000030
:100050000C9400001027E80364000A00010000105F
:10006000000110000100000001000400040066000F
:100070000000F894EE27ECBBF1E0FBBFEBBFE5BF5F
:100080008DE0A2E0BB27ED938A95E9F780E094E04C
:10009000A0E6ED930197E9F7EAE6F0E08591959106
:1000A000009761F0A591B59105901590BF01F00101
:1000B00005900D920197E1F7FB01F0CFEFE5EDBF61
:1000C000E4E0EEBFC0E6D1E00C946600E0E0EABBFD
:1000D000EBBBE8E3E7BBE0E0E8BBE4BBE5BBE1BBCF
:1000E000E2BBE1E6E3BFE0E0E2BFECBFEFBDEEBDA7
:1000F000EDBDECBDE7BDE6BDEBBDEABDE9BDE8BDCC
:10010000E2BDE5BDE4BDE3BDE9BFE5BFE4BFEAB9DB
:10011000E0E8E8B9E0E0E0BFE6B9EDB9E6BF989BFA
:1001200008C0EFEFF0E04E165F061CF4F2013196C6
:100130002F01999B08C0E1E0FFEFE415F5051CF4E1
:10014000F20131972F0100240414050424F44CBE5D
:10015000C49AC59805C0E42DE195ECBFC498C59A32
:10016000A5E0B0E00E94B600DACFFFCF109639F0DC
:1001700088EE93E00197F1F7A8951197C9F70895D4
:00000001FF
