:0E0000000C9482000C94D2000C9400000C941E
:10000E0000000C9400000C9400000C9400000C9462
:10001E0000000C9400000C9400000C9400000C9452
:10002E0000000C9400000C9400000C9400000C9442
:10003E0000000C9400000C9400000C9400000C9432
:10004E0000000C9400009A019A019A010000FFFF33
:10005E004144432076616C756500202020204C437E
:10006E004420544553542020202000203C3C3C3C4E
:10007E0020444F4E45203E3E3E3E20002020202074
:10008E00202020202020202020202020002020435F
:10009E00616C6962726174696E67202020000100D4
:1000AE002D4E414E00494E46000080C0080006000D
:1000BE0054000200EA015C000A0060015E001100BB
:1000CE006A01680011007B0179000A008C015E0054
:1000DE00110096018A001100A7018A001100B801D3
:1000EE009B001100C9018A000100EC01AC00020066
:1000FE00F001B8000000F894EE27ECBBF1E0FBBF76
:10010E00EBBFE5BF8DE0A2E0BB27ED938A95E9F743
:10011E0080E094E0A0E6ED930197E9F7EAEBF0E0DA
:10012E0085919591009761F0A591B59105901590E7
:10013E00BF01F00105900D920197E1F7FB01F0CFA1
:10014E00EFE5EDBFE4E0EEBFC0E6D1E00C94DD00DC
:10015E00E0E0EABBE7E8E6B9E0E4E7B90895AA9380
:10016E000E94ED02E7B1AE2FEC81EF70EA2BE7B9FA
:10017E00369A349BFECF83E08A95F1F724B133276C
:10018E00E5B1FE2FE0E08F01020F131FF8010E9470
:10019E00F20225960895EA93EFB7EA93E1E0CE26B0
:1001AE00E0E0E8BBE991EFBFE9911895E0E0EABB2A
:1001BE00EBBBE7BBE8BBE4BBE5BBE0E7E1BBE4E0E0
:1001CE00E2BBE0E0E3BFE2BFECBFEFBDEEBDEDBDD5
:1001DE00ECBDE7BDE6BDEBBDEABDE9BDE8BDE2BDE8
:1001EE00E5BDE4BDE3BDE9BFEBB7E064EBBFE3E023
:1001FE00E5BFE0E0E4BFE0E4EABF7894E0E0EAB90E
:10020E00E0E8E8B9E0E0E7B9E1E8E6B9E0E0E0BF50
:10021E00EDB9E6BFA0E10E9476020E94A402A0E61C
:10022E00B1E00E94AB020E94A402AAE6B1E00E94D5
:10023E00AF02ABE7B1E00E94AF02A8EEB3E00E94BE
:10024E00E3022697E0E0E883E983EA83EB83EC831D
:10025E00ED837EDFA0E083DFEC83FD8379DFA1E019
:10026E007EDFEA83FB8374DFA2E079DFE883F98324
:10027E000C2C0D2809F04AC0AC81BD81A615B7051E
:10028E0014F0949A01C09498AA81BB81A815B9055F
:10029E0014F0959A01C09598A881B981AA15BB054D
:1002AE0014F0969A01C09698E091EA01F091EB0154
:1002BE00309731F00E94A402ACE8B1E00E946502D2
:1002CE000E94B602A6E9B1E00E94AF02EC81FD8168
:1002DE000E94BB020E94B6020E94C102EA81FB810B
:1002EE000E94BB02E5E00E94C502E881F9810E94EE
:1002FE00BB02ECE00E94C502A4EFB1E00E94E30253
:10030E00E0E0E093EA01E093EB0148C0A091EA013E
:10031E00B091EB01119791F0E0E0EA93A0E00E941A
:10032E002602A7EAB1E00E946502E0E0EA93A0E0AF
:10033E000E942602A8EBB1E00E9465020E94B6025E
:10034E00A9ECB1E00E94AF0203DFA0E008DF3F019D
:10035E007A926A920E94CA020E94B6020E94CE024D
:10036E00A1E0FDDE4F019A928A920E94CA02E5E058
:10037E000E94D102A2E0F3DE5F01BA92AA920E941D
:10038E00CA02ECE00E94D102E1E0F0E0E093EA0163
:10039E00F093EB01A6E9B0E00E94E302269651CF5E
:1003AE00FFCFBA93AA93A991B991E991F991309699
:1003BE002AF4E095F09531966DE26D93E89480E124
:1003CE0097E20DD088EE93E00AD084E6992707D005
:1003DE008AE005D06E2F10D066276C93089566279D
:1003EE00E817F90720F06395E81BF90BC9F76623A8
:1003FE0011F416F008956894605D6D930895AA93B4
:10040E00E8B3EF70AE2FE881E07FEA2BE8BB82E025
:10041E008A95F1F7C29A82E08A95F1F7C29882E046
:10042E008A95F1F788C0AA93A881E9DFE881E29561
:10043E00E883A881E4DF81E18A95F1F77CC0AA9375
:10044E00E881F0E0E051FE4FE081A981AE0FEBDFD5
:10045E00E981E093F401E881E093F5012296089595
:10046E00A2E00E94D602ACE0DEDFA1E00E94D6023E
:10047E00E0E0E093F501E093F4010895AA93A881DA
:10048E00AA3031F0E091F601A091F401AE1760F0C0
:10049E00E0E0EA93A091F501AF5FA093F501CFDF05
:1004AE00A881AA3009F447C0E091F401EF5FE09310
:1004BE00F401C09AA881B7DFC0983DC0BA93AA9341
:1004CE001A93A981BA81ED91A983BA831E2FE030C8
:1004DE0019F0A12FD3DFF5CF188123960895AA9393
:1004EE00E7B3E06FE7BBBA9AB89AB99AC298C098C8
:1004FE00C198E881E093F601E058E093F201E881BB
:10050E00E054E093F301A4E1B0E00E94E3020E9404
:10051E00DC020E94DC020E94DC02A0E270DF81E2BB
:10052E008A95F1F7A8E27FDFA4E07DDFA5E87BDF07
:10053E00A6E079DF95DF219608950E943702E0E06C
:10054E00EA93A0E00C9426020E9465020C94AF0080
:10055E000E946502E0E0EA93A1E00C942602E0E03E
:10056E00EA93A1E00C942602FA93EA93AAEDB1E085
:10057E000C94D801AAEDB1E00C946502EA93A1E0C7
:10058E000E942602F7CFAAEDB1E00C94D801AAED95
:10059E00B1E0DACFEA93A1E00E942602F8CF0E94E2
:1005AE001A02A3E0B0E00C94E302A0E30E9406025C
:1005BE0081E28A95F1F70895109639F08AEF90E06E
:1005CE000197F1F7A8951197C9F708953A932A93D1
:1005DE001A930A9308953B812A81198108810895FF
:00000001FF
