:0C0000000C9481000C9400000C94000093
:10000C000C9400000C9400000C94B4000C940000B0
:10001C000C9400000C94AE000C9400000C940000A6
:10002C000C9400000C9400000C9400000C94000044
:10003C000C9400000C9400000C9400000C94000034
:10004C000C9400000C9400001027E80364000A00D4
:10005C00010000100001100001000000000025202C
:10006C00640025206600202020424F4F54494E4703
:10007C00205550202020002020202047524F555042
:10008C0020233120202020004F00580023004672EE
:10009C00657175656E63790020202020202020205A
:1000AC000045000080C001002D4E414E00494E46D7
:1000BC0000000400040066001100600172001100D1
:1000CC0071018300020082019400020084019600F9
:1000DC000200860198000A0088019A00090092012A
:1000EC00A40002009B01AD000200C801B000010099
:1000FC00CF01B2000000F894EE27ECBBF1E0FBBF9F
:10010C00EBBFE5BF8DE0A2E0BB27ED938A95E9F745
:10011C0080E094E0A0E6ED930197E9F7EEEBF0E0D8
:10012C0085919591009761F0A591B59105901590E9
:10013C00BF01F00105900D920197E1F7FB01F0CFA3
:10014C00EFE5EDBFE4E0EEBFC0E6D1E00C94B60005
:10015C00EA93FA93EFB7EA93A89AFFCFA89AFFCF46
:10016C00E0E0EABBEBBBE7BBE8BBE1E0E4BBE0E013
:10017C00E5BBE1BBE2BBE3BFE2BFECBFEFBDE1E03F
:10018C00EEBDE0E0EDBDECBDE7BDE6BDEBBDEABD0F
:10019C00E9BDE8BDE2BDE5BDE4BDE3BDE4E2E9BF18
:1001AC00E0E0E5BFE4BFEAB9E0E8E8B9E0E0E0BFD1
:1001BC00E6B9EDB9E6BFA0E1FCD0BCD0E0E00E940E
:1001CC002F03A0E6B1E00E943303A1E7B1E0E0D039
:1001DC00B1D0E1E4EEBDEEE00E942F03A2E8B1E065
:1001EC00D7D0E0E0E093A501E093A601E8B7E5FFE6
:1001FC00FDCFE1E0F0E0E093A501F093A6010E94B1
:10020C003A032F01EEE00E942F03A4E8B1E0C0D026
:10021C00E8B7E5FFFDCF0E943A033F01EEE00E94F4
:10022C002F03A6E8B1E0B4D0E0E00E942F03A8E8C9
:10023C00B1E00E943303E8E00E944503A2E9B1E07B
:10024C00A7D0E8E00E944503F201E619F709E09314
:10025C00A301F093A401A091A301B091A401E6E045
:10026C000E9445030E944903A0E0B4E284E799E4AC
:10027C000E94E904ADE9B1E00E94DA030E94930503
:10028C00E0919D01F0919E0160919F017091A00100
:10029C00A8EEB3E080E090E00E947B05E0939D0126
:1002AC00F0939E0160939F017093A0010E944903FB
:1002BC000E94A705E2E0EA93A7EAB1E00E940D02D2
:1002CC00A7EAB1E065D0A4EFB1E00E949B0383CF15
:1002DC00FFCFAA93EBB3EF70AE2FE881E07FEA2B50
:1002EC00EBBB82E08A95F1F7DA9A82E08A95F1F716
:1002FC00DA9882E08A95F1F788C0AA93A881E9DFA1
:10030C00E881E295E883A881E4DF81E18A95F1F741
:10031C007CC0AA93E881F0E0E853FE4FE081A9810C
:10032C00AE0FEBDFE981E093CC01E881E093CD01E6
:10033C0022960895A2E00E945203ACE0DEDFA1E019
:10034C000E945203E0E0E093CD01E093CC010895CC
:10035C00AA93A881AA3031F0E091CE01A091CC01F2
:10036C00AE1760F0E0E0EA93A091CD01AF5FA093EF
:10037C00CD01CFDFA881AA3009F447C0E091CC01B0
:10038C00EF5FE093CC01D89AA881B7DFD8983DC035
:10039C00BA93AA931A93A981BA81ED91A983BA83CE
:1003AC001E2FE03019F0A12FD3DFF5CF1881239643
:1003BC000895AA93EAB3E06FEABBD29AD09AD19A85
:1003CC00DA98D898D998E881E093CE01E058E09378
:1003DC00CA01E881E054E093CB01A4E1B0E00E94B3
:1003EC009B030E9458030E9458030E945803A0E2EA
:1003FC0070DF81E28A95F1F7A8E27FDFA4E07DDF70
:10040C00A5E87BDFA6E079DF95DF21960895BA9306
:10041C00AA932497E0E0E883E983EA83EFE3EB8394
:10042C001A930A93EB85FC85EF3FAFEFFA0739F48B
:10043C000E945F03A4EBB0E00E94DA02B1C0EF3F70
:10044C00AFE7FA0739F40E945F03A5EBB0E00E9416
:10045C00DA02A6C0AC85AA2362F4E985FA856B851D
:10046C007C850E94A5030E9464030E946903EDE24F
:10047C00EC93A885A73010F0E6E0E8871885E12F0B
:10048C001150E03039F00E9470030E9475030E94F5
:10049C007C03F5CF0E9481030E944B040E946403ED
:1004AC0010E0E0E0F0E060E87FE30E947C030E9453
:1004BC0081030E942E0588F00E9470030E948A031B
:1004CC000E947C031F5F173238F00E945F03A9EB78
:1004DC00B0E00E94DA0264C0EACF103029F40E9426
:1004EC006903E0E3EC932FC0E12F1150E03059F198
:1004FC000E9470030E947503A0E0B0E080E09FE3CF
:10050C000E944B04DF01CB010E9418030E947C0364
:10051C000E9481030E94E9040E94D8030E2F0E94BE
:10052C006903E02FE05DEC93E02FF0E00E94700394
:10053C000E9456050E9411040E949B040E94910384
:10054C000E949603D1CFE885E03031F10E94690317
:10055C00EEE2EC93E885E150E887EF5FE9F00E946A
:10056C0091030E948A030E946403E985FA856B85D6
:10057C007C850E94D8030E2F0E946903E02FE05D5A
:10058C00EC93E02FF0E00E9491030E9456050E942C
:10059C0011040E949603DECFAE81BF81E0E0EC93A4
:1005AC00198108812D960895BA93AA93E991F9912E
:1005BC00A991B991CD0105900D920020E1F7FC01B4
:1005CC0008950E94AC057B816A81F981E88177FBF3
:1005DC00770F67FD7160972F9E5781F078F09831F7
:1005EC0090F4AA27BB27882708948795B795A795D9
:1005FC009A95D1F7EA23FB23682305C0E894772763
:10060C00EE27FF2766276F77769508F4606877F9F1
:10061C00A991B99189919991EA17FB076807790714
:10062C0097FB08950E94AC050E949D050E94E7026D
:10063C000E94A20519F40E94980509C0E6F70E94D1
:10064C009805A0E0B0E080E89FE30E944404249663
:10065C000895EA93A0E00C948F010E94CE01E0E093
:10066C00EA93A1E00C948F01E0E2E8BFE7B5FE2F1E
:10067C00E0E0DF01E6B5F0E0EA0FFB1F0895EA9336
:10068C00A1E00C948F01E091A301F091A4016627E5
:10069C0077270E94110408950E948301A3E0B0E023
:1006AC000C949B03A0E30E946F0181E28A95F1F701
:1006BC000895EE81FF81FA93EA930895E987FA870A
:1006CC006B877C870895AE81BF811196AE83BF8303
:1006DC0011970895AA81BB818C819D810895EDECC1
:1006EC00FCEC6CEC7DE30E949B040895EA83FB8395
:1006FC006C837D830895EA81FB816C817D81A98562
:10070C00BA858B859C850895E0E0F0E060E271E4A9
:10071C000E949B040895A985BA858B859C850895B4
:10072C000E94B1050E944404C9CF109639F08AEF9B
:10073C0090E00197F1F7A8951197C9F708953097B4
:10074C006040704009F070580895552342F45038B9
:10075C0011F4E0FF04C03196691F791F6BF050E86B
:10076C00572711F45F93CFC05F3F31F0660F000C39
:10077C0057956795752F08955F9300200AF0CFC0A9
:10078C00C8C050E8192E1522880F991F9527550FB0
:10079C00879550E8072E0522660F771F7527550F92
:1007AC0067950895689401C0E8945F93F2DF703800
:1007BC0018F07F3F08F4A7C056E1571BAAF45195D7
:1007CC0058300EF4593030F0EFEFFFEF6FEF7FE75A
:1007DC0077F91AC077275523B9F0EE0FFF1F661F64
:1007EC00771F5A95D1F710C07727583028F0EF2F84
:1007FC00F62F672F5850F9CF552331F07695679522
:10080C00F795E7955A95D1F700200AF441D15F91FD
:10081C000895689401C0E894309760407040B1F03E
:10082C00002426F0772312F4009432D1172E7EE1A7
:10083C00112032F07A95EE0FFF1F661F111CF9CFB5
:10084C00EF2FF62F612D5F938ADF5F9108954F9301
:10085C00AF01FD01DA01AB01BC01CA01402D012C35
:10086C00142E4F910895EA0FFB1F681F0895E09511
:10087C00F0956095EF5FFF4F6F4F08955F9381DFA9
:10088C00903871F150E8152604C05F937ADF9038E8
:10089C0039F1703821F1572F591B2BF112F4D7DF96
:1008AC00FACF583118F0AA27BB278827583028F0E0
:1008BC00AB2FB82F88275850F9CF552329F08695A0
:1008CC00B795A7955A95D9F7502D512572F0CBDFD6
:1008DC0038F46795F795E795739513F420C0B7DF57
:1008EC003EDF5F910895D8F7FBCFEA1BFB0B680B3B
:1008FC0051F010F40094BBDF662392F3EE0FFF1F50
:10090C00661F7A95CBF7EE27FF27662777275F912F
:10091C000895EFEFFFEF6FE77FEF5F910895EFEF33
:10092C00FFEF6FE77FE75F9108955F932ADF7038E1
:10093C0051F3903841F301240894791F23F41CF3EC
:10094C0000203AF3ECCF0F921F932F933F934F93CA
:10095C00112722279927689FA0018F9F302D410DC9
:10096C00591F6B9F300D411D591F8E9F27D0BF9F64
:10097C0025D06A9F23D0BE9F1DD0AF9F1BD0AE9FAA
:10098C00110D291F391F491F591FE32FF42F652FF4
:10099C00522F4F913F912F911F910F9066232AF068
:1009AC00550FEE1FFF1F661F02C073954BF2CDDE75
:1009BC005F910895100D211D391F02C0200D311DAE
:1009CC00491F591F08955F93DCDE703821F4112004
:1009DC000AF49FCFA4CF903809F495CF0124089442
:1009EC00970B1BF4D4F30020F3CF792F1F932F9385
:1009FC003F934F9311241127222733274427552740
:100A0C0090E2AE17BF078607410730F0AE1BBF0B55
:100A1C00860B410B089401C08894551F221F331F6D
:100A2C00111CAA1FBB1F881F441F9A9551F7F9016F
:100A3C00612D4F913F912F911F91662332F0550FED
:100A4C00EE1FFF1F661F7A9543F27FDE5F910895BC
:100A5C0099239AF0772342F0971748F029F4AE17B0
:100A6C00BF07860720F031F09894889408959894E5
:100A7C00089408951894889408957723C2F79717CB
:100A8C0098F3A9F7EA17FB07680788F399F3ECCFFB
:100A9C00F09560957095E195FF4F6F4F7F4F0895DE
:100AAC006F2F660F660B762F08957A9F702D6B9FB4
:100ABC00700DF89F700DE99F700D6A9F602D710D80
:100ACC00FB9F600D711DE89F600D711D8827FA9FBB
:100ADC00F02D610D781FEB9FF00D611D781FEA9FC3
:100AEC00E02DF10D681F781F089504D0DEDF0EF4A1
:100AFC00CFDF0895E89477FF02C0CADF689497FFB0
:100B0C000BC00024A095B095809590951196801DF2
:100B1C00901D00F8039400FA0895ED93FD936D93E6
:100B2C007C930895E881F9816A817B810895A8817D
:100B3C00B9818A819B810895E883F9836A837B83D9
:100B4C0008957A936A93FA93EA9308959A938A9301
:100B5C00BA93AA930895182E862F612D192E972FCC
:100B6C00712D1B2EBF2FF12D1A2EAE2FE12D0895B6
:00000001FF
