:020000000C945E
:100002002F000C9463000C946B000C9400000C9471
:1000120000000C9400000C9400000C9400000C945E
:1000220000000C9400000C9400000C9400000C944E
:1000320000000C9400000C9400000C9400000C943E
:1000420000000C9400000C9400000C9400000C942E
:10005200000001000200040054000000F894EE27A2
:10006200ECBBF1E0FBBFEBBFE5BF8DE0A2E0BB273D
:10007200ED938A95E9F780E094E0A0E6ED9301978D
:10008200E9F7E6E5F0E085919591009761F0A59199
:10009200B59105901590BF01F00105900D92019761
:1000A200E1F7FB01F0CFEFE5EDBFE4E0EEBFC0E624
:1000B200D1E00C947C00E1E0EABBEBB3A1E0EA27DB
:1000C200EBBB0895EA93FA93EFB7EA93F201319604
:1000D2002F010CC0EA93FA93EFB7EA93E1E0F0E064
:1000E200E415F5051CF4F20131972F01E991EFBFF8
:1000F200F991E9911895E0E0EABBEBBBE7BBE8BBFD
:10010200E4BBE5BBE1BBE2BBE3BFE2BFECBFEFBDDB
:10011200EEBDEDBDECBDE7BDE6BDEBBDEABDE9BDA3
:10012200E8BDE2BDE5BDE4BDE3BDE9BFEFE0E5BF8B
:10013200E0E0E4BFE0ECEBBF7894E0E0EAB9E0E8AD
:10014200E8B9E0E0E0BFE6B9EDB9E6BFE1E0EABB5D
:100152002497E0E0E883E983EA83EB832297E0B324
:10016200F0E0E883F983E078F070E883F983309770
:10017200F1F0F201AC81BD81EA0FFB1FEC83FD833C
:10018200E0B3F0E0EA83FB83E074F070EA83FB8380
:10019200AC81BD81A03AEFE0BE0724F08CDFE0E045
:1001A200EC83ED83A1E0B0E00E94DF0004C0E0E058
:1001B200EC83ED83D8982296D1CFFFCF109639F0F9
:1001C2008AEF90E00197F1F7A8951197C9F7089582
:00000001FF
